:020000040000FA
:08000000803102288731FD2F39
:100EBC002F0096019701980199019A019B01080056
:100ECC00623031008D008F0191010230930092014C
:100EDC00080087315E278731873179278731873141
:100EEC006627873108002000960197019801F030A1
:100EFC009100FF309200FF309300FF303E00CE0097
:100F0C00FF30C300D030B800E501C401B901CF01F6
:100F1C00BA01C501D001FF30BB00FF30C600FF3065
:100F2C00D100FF30BC00FF30C700FF30D2000830CA
:100F3C00E800080087316F27873120008C1EA72F0F
:100F4C00A82FF92F16140430F100CF30F000023026
:100F5C00890BAE2FF00BAE2FF10BAE2FF201F3017C
:100F6C0003102000161C03140318BD2FC02F2000E3
:100F7C001614C22F20001610A330F0005530890B28
:100F8C00C52FF00BC52F00000130F2070030F33DE8
:100F9C007308803AF00080307002031DD72F0530A3
:100FAC007202031CDA2FDB2FB62F200096140330AD
:100FBC00F1008A30F0005630890BE22FF00BE22F53
:100FCC00F10BE22F2000961016150430F100CF30F3
:100FDC00F0000230890BF02FF00BF02FF10BF02FFB
:100FEC0020001611A32F9601A32F80310228200078
:040FFC008731A02F6A
:020000040001F9
:0A000E00EC3FFF3F9F3FFF3FFF3F25
:00000001FF
